{
  "contractName": "Sbbs",
  "abi": [
    {
      "inputs": [
        {
          "internalType": "string",
          "name": "postData",
          "type": "string"
        }
      ],
      "stateMutability": "nonpayable",
      "type": "constructor"
    },
    {
      "anonymous": false,
      "inputs": [
        {
          "indexed": true,
          "internalType": "address",
          "name": "author",
          "type": "address"
        },
        {
          "indexed": true,
          "internalType": "address",
          "name": "replyToAddress",
          "type": "address"
        },
        {
          "indexed": true,
          "internalType": "uint256",
          "name": "postID",
          "type": "uint256"
        },
        {
          "indexed": false,
          "internalType": "string",
          "name": "postData",
          "type": "string"
        }
      ],
      "name": "posted",
      "type": "event"
    },
    {
      "inputs": [],
      "name": "getPostCount",
      "outputs": [
        {
          "internalType": "uint256",
          "name": "",
          "type": "uint256"
        }
      ],
      "stateMutability": "view",
      "type": "function",
      "constant": true
    },
    {
      "inputs": [
        {
          "internalType": "uint256",
          "name": "postID",
          "type": "uint256"
        }
      ],
      "name": "getPost",
      "outputs": [
        {
          "internalType": "address",
          "name": "author",
          "type": "address"
        },
        {
          "internalType": "uint256",
          "name": "replyTo",
          "type": "uint256"
        },
        {
          "internalType": "uint256",
          "name": "time",
          "type": "uint256"
        },
        {
          "internalType": "string",
          "name": "postData",
          "type": "string"
        }
      ],
      "stateMutability": "view",
      "type": "function",
      "constant": true
    },
    {
      "inputs": [
        {
          "internalType": "uint256",
          "name": "replyTo",
          "type": "uint256"
        },
        {
          "internalType": "string",
          "name": "postData",
          "type": "string"
        }
      ],
      "name": "createPost",
      "outputs": [
        {
          "internalType": "uint256",
          "name": "postID",
          "type": "uint256"
        }
      ],
      "stateMutability": "nonpayable",
      "type": "function"
    }
  ],
  "bytecode": "0x60806040523480156200001157600080fd5b5060405162000ebb38038062000ebb833981810160405281019062000037919062000441565b62000041620001b6565b30816000019073ffffffffffffffffffffffffffffffffffffffff16908173ffffffffffffffffffffffffffffffffffffffff16815250504281604001818152505081816060018190525060008160200181815250506000806000815480929190620000ad90620004cb565b919050559050816001600083815260200190815260200160002060008201518160000160006101000a81548173ffffffffffffffffffffffffffffffffffffffff021916908373ffffffffffffffffffffffffffffffffffffffff1602179055506020820151816001015560408201518160020155606082015181600301908051906020019062000140929190620001f4565b5090505080600073ffffffffffffffffffffffffffffffffffffffff163073ffffffffffffffffffffffffffffffffffffffff167f3202464680e28093be9a7f5c5b5da772668e4d977d1c368dd2407689eaddb1ca86604051620001a5919062000576565b60405180910390a4505050620005ff565b6040518060800160405280600073ffffffffffffffffffffffffffffffffffffffff1681526020016000815260200160008152602001606081525090565b8280546200020290620005c9565b90600052602060002090601f01602090048101928262000226576000855562000272565b82601f106200024157805160ff191683800117855562000272565b8280016001018555821562000272579182015b828111156200027157825182559160200191906001019062000254565b5b50905062000281919062000285565b5090565b5b80821115620002a057600081600090555060010162000286565b5090565b6000604051905090565b600080fd5b600080fd5b600080fd5b600080fd5b6000601f19601f8301169050919050565b7f4e487b7100000000000000000000000000000000000000000000000000000000600052604160045260246000fd5b6200030d82620002c2565b810181811067ffffffffffffffff821117156200032f576200032e620002d3565b5b80604052505050565b600062000344620002a4565b905062000352828262000302565b919050565b600067ffffffffffffffff821115620003755762000374620002d3565b5b6200038082620002c2565b9050602081019050919050565b60005b83811015620003ad57808201518184015260208101905062000390565b83811115620003bd576000848401525b50505050565b6000620003da620003d48462000357565b62000338565b905082815260208101848484011115620003f957620003f8620002bd565b5b620004068482856200038d565b509392505050565b600082601f830112620004265762000425620002b8565b5b815162000438848260208601620003c3565b91505092915050565b6000602082840312156200045a5762000459620002ae565b5b600082015167ffffffffffffffff8111156200047b576200047a620002b3565b5b62000489848285016200040e565b91505092915050565b7f4e487b7100000000000000000000000000000000000000000000000000000000600052601160045260246000fd5b6000819050919050565b6000620004d882620004c1565b91507fffffffffffffffffffffffffffffffffffffffffffffffffffffffffffffffff8214156200050e576200050d62000492565b5b600182019050919050565b600081519050919050565b600082825260208201905092915050565b6000620005428262000519565b6200054e818562000524565b9350620005608185602086016200038d565b6200056b81620002c2565b840191505092915050565b6000602082019050818103600083015262000592818462000535565b905092915050565b7f4e487b7100000000000000000000000000000000000000000000000000000000600052602260045260246000fd5b60006002820490506001821680620005e257607f821691505b60208210811415620005f957620005f86200059a565b5b50919050565b6108ac806200060f6000396000f3fe608060405234801561001057600080fd5b50600436106100415760003560e01c806340731c2414610046578063a9ca3a4c14610079578063bcc95407146100a9575b600080fd5b610060600480360381019061005b91906104fb565b6100c7565b6040516100709493929190610611565b60405180910390f35b610093600480360381019061008e91906106c2565b6101e1565b6040516100a09190610722565b60405180910390f35b6100b16103d1565b6040516100be9190610722565b60405180910390f35b600080600060606001600086815260200190815260200160002060000160009054906101000a900473ffffffffffffffffffffffffffffffffffffffff169350600160008681526020019081526020016000206001015492506001600086815260200190815260200160002060020154915060016000868152602001908152602001600020600301805461015a9061076c565b80601f01602080910402602001604051908101604052809291908181526020018280546101869061076c565b80156101d35780601f106101a8576101008083540402835291602001916101d3565b820191906000526020600020905b8154815290600101906020018083116101b657829003601f168201915b505050505090509193509193565b60006101eb6103da565b33816000019073ffffffffffffffffffffffffffffffffffffffff16908173ffffffffffffffffffffffffffffffffffffffff1681525050848160200181815250504281604001818152505083838080601f016020809104026020016040519081016040528093929190818152602001838380828437600081840152601f19601f820116905080830192505050505050508160600181905250600080815480929190610296906107cd565b919050559150806001600084815260200190815260200160002060008201518160000160006101000a81548173ffffffffffffffffffffffffffffffffffffffff021916908373ffffffffffffffffffffffffffffffffffffffff16021790555060208201518160010155604082015181600201556060820151816003019080519060200190610327929190610418565b50905050816001600087815260200190815260200160002060000160009054906101000a900473ffffffffffffffffffffffffffffffffffffffff1673ffffffffffffffffffffffffffffffffffffffff163373ffffffffffffffffffffffffffffffffffffffff167f3202464680e28093be9a7f5c5b5da772668e4d977d1c368dd2407689eaddb1ca87876040516103c1929190610852565b60405180910390a4509392505050565b60008054905090565b6040518060800160405280600073ffffffffffffffffffffffffffffffffffffffff1681526020016000815260200160008152602001606081525090565b8280546104249061076c565b90600052602060002090601f016020900481019282610446576000855561048d565b82601f1061045f57805160ff191683800117855561048d565b8280016001018555821561048d579182015b8281111561048c578251825591602001919060010190610471565b5b50905061049a919061049e565b5090565b5b808211156104b757600081600090555060010161049f565b5090565b600080fd5b600080fd5b6000819050919050565b6104d8816104c5565b81146104e357600080fd5b50565b6000813590506104f5816104cf565b92915050565b600060208284031215610511576105106104bb565b5b600061051f848285016104e6565b91505092915050565b600073ffffffffffffffffffffffffffffffffffffffff82169050919050565b600061055382610528565b9050919050565b61056381610548565b82525050565b610572816104c5565b82525050565b600081519050919050565b600082825260208201905092915050565b60005b838110156105b2578082015181840152602081019050610597565b838111156105c1576000848401525b50505050565b6000601f19601f8301169050919050565b60006105e382610578565b6105ed8185610583565b93506105fd818560208601610594565b610606816105c7565b840191505092915050565b6000608082019050610626600083018761055a565b6106336020830186610569565b6106406040830185610569565b818103606083015261065281846105d8565b905095945050505050565b600080fd5b600080fd5b600080fd5b60008083601f8401126106825761068161065d565b5b8235905067ffffffffffffffff81111561069f5761069e610662565b5b6020830191508360018202830111156106bb576106ba610667565b5b9250929050565b6000806000604084860312156106db576106da6104bb565b5b60006106e9868287016104e6565b935050602084013567ffffffffffffffff81111561070a576107096104c0565b5b6107168682870161066c565b92509250509250925092565b60006020820190506107376000830184610569565b92915050565b7f4e487b7100000000000000000000000000000000000000000000000000000000600052602260045260246000fd5b6000600282049050600182168061078457607f821691505b602082108114156107985761079761073d565b5b50919050565b7f4e487b7100000000000000000000000000000000000000000000000000000000600052601160045260246000fd5b60006107d8826104c5565b91507fffffffffffffffffffffffffffffffffffffffffffffffffffffffffffffffff82141561080b5761080a61079e565b5b600182019050919050565b82818337600083830152505050565b60006108318385610583565b935061083e838584610816565b610847836105c7565b840190509392505050565b6000602082019050818103600083015261086d818486610825565b9050939250505056fea2646970667358221220e5ae2f74b138ee959b74851d71e6cba9242974af81960c8b8b13498730d3d13a64736f6c634300080b0033",
  "immutableReferences": {},
  "source": "// SPDX-License-Identifier: GPL-3.0\r\n\r\npragma solidity >=0.7.0 <0.9.0;\r\n\r\nimport \"./Sbbsi.sol\";\r\n\r\ncontract Sbbs is Sbbsi {\r\n    uint nextPostID;\r\n\r\n    struct Post {\r\n        address author;\r\n\r\n        uint replyTo;\r\n\r\n        uint time;\r\n\r\n        string postData;\r\n    }\r\n\r\n    mapping(uint=>Post) private posts;\r\n\r\n    constructor(string memory postData) {\r\n\r\n        Post memory postZero;\r\n\r\n        postZero.author = address(this);\r\n        postZero.time = block.timestamp;\r\n        postZero.postData = postData;\r\n        postZero.replyTo = 0;\r\n\r\n        uint postID = nextPostID++;\r\n        posts[postID] = postZero;\r\n\r\n        emit posted(address(this), address(0), postID, postData);\r\n    }\r\n\r\n    function getPostCount() external view returns (uint) {\r\n        return nextPostID;\r\n    }\r\n    \r\n    function getPost(uint postID) external view returns (\r\n        address author, \r\n        uint replyTo, \r\n        uint time, \r\n        string memory postData\r\n        ) {\r\n        author = posts[postID].author;\r\n        replyTo = posts[postID].replyTo;\r\n        time = posts[postID].time;\r\n        postData = posts[postID].postData;\r\n    }\r\n\r\n    function createPost(uint replyTo, string calldata postData) external returns (uint postID) {\r\n        Post memory newPost;\r\n\r\n        newPost.author = msg.sender;\r\n        newPost.replyTo = replyTo;\r\n        newPost.time = block.timestamp;\r\n        newPost.postData = postData;\r\n\r\n        postID = nextPostID++;\r\n        posts[postID] = newPost;\r\n\r\n        emit posted(msg.sender, posts[replyTo].author, postID, postData);\r\n    }\r\n\r\n}",
  "sourcePath": "/home/tssn/sbbs/contracts/Sbbs.sol",
  "compiler": {
    "name": "solc",
    "version": "0.8.11+commit.d7f03943.Emscripten.clang"
  },
  "schemaVersion": "3.4.4",
  "updatedAt": "2022-01-15T01:55:54.221Z",
  "networkType": "ethereum",
  "devdoc": {
    "kind": "dev",
    "methods": {},
    "version": 1
  },
  "userdoc": {
    "kind": "user",
    "methods": {},
    "version": 1
  }
}